S010000070726F6A656374352E73726563E8
S11300000C942A000C943F000C943F000C943F0085
S11300100C943F000C943F000C943F000C943F0060
S11300200C943F000C943F000C943F000C943F0050
S11300300C943F000C943F000C943F000C943F0040
S11300400C943F000C943F000C943F000C943F0030
S11300500C943F0011241FBECFE5D8E0DEBFCDBF16
S113006010E0A0E6B0E0E0E3F9E002C005900D92F4
S1130070A03AB107D9F70E9451010C9496040C944C
S113008000009BB39E7F9BBB14BA90EF95BB44B317
S113009021E030E0F90102C0EE0FFF1F8A95E2F77C
S11300A0CF014E2B44BB95B38095892385BB85B383
S11300B06C5F7F4F062E02C0220F331F0A94E2F7B3
S11300C0282B25BB83B390E002C0959587956A954C
S11300D0E2F780FD06C08BB381608BBB81E090E0CA
S11300E0089580E090E008950F931F93CF93DF93DA
S11300F000E010E018C0BE01C8010E944100892B35
S113010049F0C801880F991F880F991F8C0F9D1FF4
S113011001960CC0219602C0C0E0D0E0C430D105E5
S113012054F30F5F1F4F04301105B4F3DF91CF91E7
S11301301F910F910895882321F088B3816088BBB3
S113014003C088B38E7F88BB88B3826088BB11BA32
S113015080B388B3846088BB00000000000011BA3B
S113016080B398B39B7F98BB0895662321F098B31E
S1130170916098BB03C098B39E7F98BB98B39D7F52
S113018098BB82BB8FEF81BB88B3846088BB0000BF
S11301900000000088B38B7F88BB0895CF93DF9362
S11301A0C82FD62F80E00E949B008823DCF36D2F9C
S11301B08C2F0E94B500DF91CF91089587B38160A1
S11301C087BB87B3826087BB87B3846087BB80E1CA
S11301D090E00E943D0160E080E30E94B50085E06C
S11301E090E00E943D0160E080E30E94B50081E060
S11301F090E00E943D0160E08CE30E94CE0060E04C
S11302008CE00E94CE0060E086E00E94CE0060E0B8
S113021081E00E94CE00089560E081E00E94CE005B
S11302200895CF93DF93C62F98E2899FC00D1124C0
S113023060E082E00E94CE0005C060E084E10E949C
S1130240CE00CD2FDFEFDC0FC111F7CFDF91CF91BF
S1130250089561E00E94CE000895CF93DF93FC01DE
S113026004C061E00E94CE00FE01EF01219680816E
S11302708111F7CFDF91CF91089523E023BF0AC006
S113028083EF82BF88B7816088BFA89508B600FE57
S1130290FDCFC9019C0121503109892B89F713BE77
S11302A00895CF93DF93CDB7DEB760970FB6F89478
S11302B0DEBF0FBECDBF0E94DE000E940C0160E0D5
S11302C080E00E941101E12CF12C0E94AE012987EB
S11302D03A874B875C876D877E878F87988B0E94D0
S11302E074004097B1F50E940C01E114F10449F443
S11302F088E0FE013996DE01119601900D928A95EF
S1130300E1F729813A814B815C816D817E818F8106
S113031098850E9471020E94B1028C0129813A8160
S11303204B815C816D817E818F8198850E946E03F3
S1130330892B39F080E29EE40E943D010E940C0169
S113034008C0EF2821F4EE24E394F12C02C0E12C40
S1130350F12C84EC99E00E943D01B7CFAF92BF929B
S1130360CF92DF92EF92FF920F931F93CF93DF937D
S1130370CDB7DEB760970FB6F894DEBF0FBECDBF22
S11303800E9423040AE010E0B8010E94AF035C015C
S11303900E942304B8010E94AF036C010E9423044D
S11303A0B8010E94AF037C010E94230481709078FD
S11303B0992324F401978E6F9F6F01968C010E94FC
S11303C0230481709078992324F401978E6F9F6F92
S11303D0019621E0012B09F020E031E0892B09F09E
S11303E030E0BA86A986DC86CB86FE86ED862F872A
S11303F0388B88E0FE013996DE01119601900D924A
S11304008A95E1F729813A814B815C816D817E81F6
S11304108F81988560960FB6F894DEBF0FBECDBF6E
S1130420DF91CF911F910F91FF90EF90DF90CF90CC
S1130430BF90AF900895CF93DF93CDB7DEB72897E1
S11304400FB6F894DEBF0FBECDBF29833A834B832A
S11304505C836D837E8398878130E9F429813A81B6
S11304608B819C81289FA001299F500D389F500D9E
S113047011248885813051F42D813E81429FC00131
S1130480439F900D529F900D112422C08D819E8117
S1130490840F951F1DC08885813081F44B815C8158
S11304A08D819E81489F9001499F300D589F300D4A
S11304B0112489819A81820F931F0AC029813A816C
S11304C08B819C81820F931F2D813E81820F931F0C
S11304D028960FB6F894DEBF0FBECDBFDF91CF9143
S11304E00895CF93DF93CDB7DEB728970FB6F8946E
S11304F0DEBF0FBECDBF29833A834B835C836D83FC
S11305007E838F83988760E070E080E090E00E94B3
S1130510110189819A81C0960E942901EF81F0E03E
S1130520E256FF4F808190E00E9429018B819C81DB
S1130530C0960E942901E885F0E0E256FF4F8081D1
S113054090E00E9429018D819E81C0960E9429011C
S113055028960FB6F894DEBF0FBECDBFDF91CF91C2
S11305600895EF92FF920F931F93CF93DF93CDB72C
S1130570DEB7AC970FB6F894DEBF0FBECDBF80E2F6
S1130580E4E6F0E0DE01119601900D928A95E1F720
S113059060E070E081E090E00E94110186E0E4E810
S11305A0F0E0DE01919601900D928A95E1F7CE017B
S11305B081960E942D0118A61FA21AA619A61CA690
S11305C01BA600E010E063E070E083E090E00E948E
S11305D04100892B19F001151105C1F50E94740021
S11305E09C01215031092031310558F59C012370BB
S11305F03327232B31F18D30910519F18F3091057B
S113060001F103301105ECF4FC013197EE0FFF1FEB
S113061081E090E08C0F9D1FE80FF91FE080F180CE
S1130620C701C0960E942901F801EE0FFF1F81E067
S113063090E08C0F9D1FE80FF91FF7A2E6A20F5F51
S11306401F4F88EB9BE00E943D01BDCF0E940C012F
S11306500130110519F48FA198A533C0023011059A
S113066099F44FA158A5CA01880F991F440F551F2B
S1130670440F551F440F551F9C01240F351F89A596
S11306809AA5820F931F1DC02FA138A544E6429F4F
S1130690C001439F900D112429A53AA5B901660F05
S11306A0771FA901440F551F440F551F440F551FB1
S11306B09B01240F351F280F391F8BA59CA5820F82
S11306C0931FAC960FB6F894DEBF0FBECDBFDF917B
S11306D0CF911F910F91FF90EF9008950F931F9367
S11306E0CF93DF93CDB7DEB728970FB6F894DEBF6C
S11306F00FBECDBF29833A834B835C836D837E8396
S11307008F8398870E940C0160E070E080E090E0A5
S11307100E94110129813A814B815C816D817E8126
S11307208F8198850E941B028017910739F48AE80B
S113073090E00E942D0181E090E006C083E990E002
S11307400E942D0180E090E028960FB6F894DEBF59
S11307500FBECDBFDF91CF911F910F91089597FBED
S1130760072E16F4009407D077FD09D00E94C30326
S113077007FC05D03EF4909581959F4F08957095A0
S113078061957F4F0895AA1BBB1B51E107C0AA1FA7
S1130790BB1FA617B70710F0A61BB70B881F991F1E
S11307A05A95A9F780959095BC01CD0108958F9233
S11307B09F92AF92BF92CF92DF92EF92FF92CF932C
S11307C0DF93EC01688179818A819B8161157105D0
S11307D08105910521F464E279ED8BE597E02DE143
S11307E033EF41E050E00E94330449015A019B0178
S11307F0AC01A7EAB1E40E9452046B017C01ACEEA7
S1130800B4EFA50194010E946004DC01CB018C0DBE
S11308109D1DAE1DBF1DB7FF03C00197A109B048C0
S113082088839983AA83BB839F77DF91CF91FF90BD
S1130830EF90DF90CF90BF90AF909F908F900895EE
S11308400E94D703089580E690E00E94D70308959C
S1130850A0E0B0E08093600090936100A0936200F8
S1130860B09363000895052E97FB1EF400940E9434
S11308704A0457FD07D00E94650407FC03D04EF4D8
S11308800C944A0450954095309521953F4F4F4F15
S11308905F4F089590958095709561957F4F8F4F28
S11308A09F4F08950E948704A59F900DB49F900DBB
S11308B0A49F800D911D11240895B7FF0C94520438
S11308C00E945204821B930B0895A1E21A2EAA1BC4
S11308D0BB1BFD010DC0AA1FBB1FEE1FFF1FA217EC
S11308E0B307E407F50720F0A21BB30BE40BF50BE9
S11308F0661F771F881F991F1A9469F76095709572
S1130900809590959B01AC01BD01CF010895A29FF4
S1130910B001B39FC001A39F700D811D1124911DCF
S1130920B29F700D811D1124911D0895F894FFCF7D
S1130930010000000100020003000A000400050099
S113094006000A000700080009000A000A00000067
S11309500A000A00416E733A2000436F72726563A5
S113096074210054727920616761696E2E002B2A0C
S9030000FC
