:100000000C942A000C9447000C9447000C94470071
:100010000C9447000C9447000C9447000C94470044
:100020000C9447000C9447000C9447000C94470034
:100030000C9447000C9447000C9447000C94470024
:100040000C9447000C9447000C9447000C94470014
:100050000C94470011241FBECFE5D8E0DEBFCDBF12
:1000600012E0A0E6B0E0E0E8F7E002C005900D92F3
:10007000A032B107D9F722E0A0E2B2E001C01D92A0
:10008000A032B207E1F70E9430020C94BE030C9438
:1000900000008F929F92AF92BF92EF92FF920F93C8
:1000A0001F93CF93DF937C01DC0111966C91119724
:1000B000EC91F0E0EE0FFF1FEE0FFF1FE45DFE4F2F
:1000C00080809180A280B38070E080E090E00E9408
:1000D0003203A50194010E9488020E94FA028B015A
:1000E000C0E0D0E02BC088B3886088BBD701EC911A
:1000F000F0E0EE0FFF1FEE0FFF1FE457FE4F608191
:100100007181828193810E940103CB010E941C02B4
:1001100088B3877F88BBD701EC91F0E0EE0FFF1F1B
:10012000EE0FFF1FE457FE4F608171818281938142
:100130000E940103CB010E941C022196C017D10727
:1001400094F2DF91CF911F910F91FF90EF90BF90AC
:10015000AF909F908F9008950E9407010897E1F754
:100160000895EF92FF920F931F93CF93DF937C013B
:100170008B01C0E0D0E00EC00E940701049711F48B
:100180000E94AC00CE01880F991F8E0D9F1D0E940A
:1001900049002196C017D1077CF3DF91CF911F91C1
:1001A0000F91FF90EF9008959BB39E7F9BBB14BA75
:1001B00090EF95BB44B321E030E0F90102C0EE0FAF
:1001C000FF1F8A95E2F7CF014E2B44BB95B3809574
:1001D000892385BB85B36C5F7F4F062E02C0220F3B
:1001E000331F0A94E2F7282B25BB83B390E002C0AB
:1001F000959587956A95E2F780FD06C08BB381607F
:100200008BBB81E090E0089580E090E008950F932B
:100210001F93CF93DF9300E010E018C0BE01C80128
:100220000E94D400892B49F0C801880F991F880FBC
:10023000991F8C0F9D1F01960CC0219602C0C0E033
:10024000D0E0C430D10554F30F5F1F4F04301105C7
:10025000B4F3DF91CF911F910F910895882321F07E
:1002600088B3816088BB03C088B38E7F88BB88B3A6
:10027000826088BB11BA80B388B3846088BB0000F9
:100280000000000011BA80B398B39B7F98BB08951B
:10029000662321F098B3916098BB03C098B39E7F0A
:1002A00098BB98B39D7F98BB82BB8FEF81BB88B30F
:1002B000846088BB00000000000088B38B7F88BB8F
:1002C0000895CF93DF93C82FD62F80E00E942E0190
:1002D0008823DCF36D2F8C2F0E944801DF91CF9192
:1002E000089587B3816087BB87B3826087BB87B37C
:1002F000846087BB80E190E00E941C0260E080E3A4
:100300000E94480185E090E00E941C0260E080E3CA
:100310000E94480181E090E00E941C0260E08CE3B2
:100320000E94610160E08CE00E94610160E086E073
:100330000E94610160E081E00E946101089560E037
:1003400081E00E9461010895CF93DF93C62F98E268
:10035000899FC00D112460E082E00E94610105C008
:1003600060E084E10E946101CD2FDFEFDC0FC1115D
:10037000F7CFDF91CF910895CF93DF93FC0104C0B5
:1003800061E00E946101FE01EF01219680818111EF
:10039000F7CFDF91CF9108950F931F93CF93DF9302
:1003A000CDB7DEB76A970FB6F894DEBF0FBECDBFEC
:1003B0008C010E949F0160E080E00E94A4018EE019
:1003C000ECEEF1E0DE01119601900D928A95E1F7D5
:1003D000CE0101960E94BC0160E081E00E94A40170
:1003E0000130110571F48CE0EAEFF1E0DE011F96B7
:1003F00001900D928A95E1F7CE010F960E94BC0103
:1004000010C00230110569F48AE0E6E0F2E0DE0196
:100410001F9601900D928A95E1F7CE010F960E94EA
:10042000BC016A960FB6F894DEBF0FBECDBFDF9158
:10043000CF911F910F91089523E023BF0AC08EEF43
:1004400082BF88B7816088BFA89508B600FEFDCF3F
:10045000C9019C0121503109892B89F713BE0895E8
:10046000CF93DF93CDB7DEB7CB5DD1090FB6F8944C
:10047000DEBF0FBECDBF87B3886087BB84E5E0E6F3
:10048000F0E0DE01119601900D928A95E1F788E780
:10049000E4EBF0E0DE01AB5ABF4F01900D928A957C
:1004A000E1F70E94710160E080E00E94A4018FE00A
:1004B000E0E1F2E0DE01A353BF4F01900D928A9577
:1004C000E1F7CE0183539F4F0E94BC010E940701B8
:1004D0008130910569F481E090E00E94CC016AE2EC
:1004E00070E0CE0101960E94B1000E949F01DBCF17
:1004F0000297C9F682E090E00E94CC016CE370E0C4
:10050000CE018B5A9F4F0E94B1000E949F01CBCF1A
:100510000E949C020C9484030E947D0358F00E9468
:10052000760340F029F45F3F29F00C946D035111DC
:100530000C94B8030C9473030E94950368F39923F9
:10054000B1F3552391F3951B550BBB27AA276217CF
:100550007307840738F09F5F5F4F220F331F441FDC
:10056000AA1FA9F335D00E2E3AF0E0E832D0915010
:100570005040E695001CCAF72BD0FE2F29D0660FFD
:10058000771F881FBB1F261737074807AB07B0E840
:1005900009F0BB0B802DBF01FF2793585F4F3AF046
:1005A0009E3F510578F00C946D030C94B8035F3FA7
:1005B000E4F3983ED4F3869577956795B795F795CC
:1005C0009F5FC9F7880F911D9695879597F90895B4
:1005D000E1E0660F771F881FBB1F62177307840750
:1005E000BA0720F0621B730B840BBA0BEE1F88F75F
:1005F000E09508950E9401036894B1110C94B8032A
:1006000008950E949D0388F09F5798F0B92F99276D
:10061000B751B0F0E1F0660F771F881F991F1AF0ED
:10062000BA95C9F714C0B13091F00E94B703B1E098
:1006300008950C94B703672F782F8827B85F39F097
:10064000B93FCCF3869577956795B395D9F73EF486
:1006500090958095709561957F4F8F4F9F4F08952E
:10066000E89409C097FB3EF490958095709561954C
:100670007F4F8F4F9F4F9923A9F0F92F96E9BB2702
:100680009395F695879577956795B795F111F8CF7E
:10069000FAF4BB0F11F460FF1BC06F5F7F4F8F4FE9
:1006A0009F4F16C0882311F096E911C0772321F0DF
:1006B0009EE8872F762F05C0662371F096E8862F77
:1006C00070E060E02AF09A95660F771F881FDAF7CE
:1006D000880F9695879597F9089597F99F6780E811
:1006E00070E060E008959FEF80EC089500240A9484
:1006F0001616170618060906089500240A941216FD
:100700001306140605060895092E0394000C11F42F
:10071000882352F0BB0F40F4BF2B11F460FF04C0DC
:100720006F5F7F4F8F4F9F4F089557FD9058440F35
:10073000551F59F05F3F71F04795880F97FB991F40
:1007400061F09F3F79F087950895121613061406FD
:10075000551FF2CF4695F1DF08C01616170618068A
:10076000991FF1CF86957105610508940895E89465
:10077000BB2766277727CB0197F90895F894FFCF19
:10078000000200020702070209020902070405022B
:100790000502040204020202020200040702070228
:1007A0000502050204020402020407020702050210
:1007B000050204020402020400020002070207020A
:1007C00009020902070405020502040204020202EA
:1007D0000202000400010001000102010204020102
:1007E00002010201040104020701050104010001E4
:1007F00000010001020102040202040400010201DE
:1008000005010201090109010901090109010901A3
:1008100007040001020105010201070107010701A8
:10082000070107010701050400010201050102019A
:100830000501050105010701070107010401020186
:1008400000010002000200020702050839EE943B95
:1008500021938C3BDDB5843B857A7A3BA4526C3B7B
:100860006C265F3BF9A1523B13D6463B2BA13B3B89
:10087000D124313BAE2E273B89CF1D3B9DF6143B47
:1008800021930C3BDDB5043B857AFA3A3274EC3A9D
:100890003337DF3AF9A1D23A13D6C63AF2B1BB3AAE
:1008A0000A14B13A753FA73A89CF9D3A0AD7B541A4
:1008B0009A99AB410000A24148E19841EC51904126
:1008C000713D88415C8F804152B87241B81E6541CC
:1008D000F6285841F6284C41D7A340418FC23541F4
:1008E00014AE2B4185EB2141C3F51841EC51104169
:1008F000F6280841D7A300415C8FF240B81EE540BE
:10090000EC51D840F628CC40D7A3C0404375727252
:10091000656E7420536F6E673A004C6974746C6531
:100920002053746172005269636B20526F6C6C00CB
:100930004E6F7420706C6179696E672E2E2E0000E8
:00000001FF
