S010000070726F6A656374352E73726563E8
S11300000C942A000C943F000C943F000C943F0085
S11300100C943F000C943F000C943F000C943F0060
S11300200C943F000C943F000C943F000C943F0050
S11300300C943F000C943F000C943F000C943F0040
S11300400C943F000C943F000C943F000C943F0030
S11300500C943F0011241FBECFE5D8E0DEBFCDBF16
S113006010E0A0E6B0E0E2EEF1E002C005900D92EF
S1130070A036B107D9F70E94DD000C94EF000C9470
S11300800000D89814BA90EF95BB44B321E030E057
S1130090F90102C0EE0FFF1F8A95E2F7CF014E2B44
S11300A044BB95B38095892385BB85B36C5F7F4F33
S11300B0062E01C0220F0A94EAF7282B25BB83B32E
S11300C090E002C0959587956A95E2F780FD04C09B
S11300D0D89A81E090E0089580E090E008950F932D
S11300E01F93CF93DF9300E010E0C0E0D0E0BE01A7
S11300F0C8010E944100892B49F0C801880F991F4B
S1130100880F991F8C0F9D1F019609C02196C4303A
S1130110D10569F70F5F1F4F0430110531F7DF91E7
S1130120CF911F910F910895662311F0C09A01C0D9
S1130130C098C19882BB8FEF81BBC29A00000000B7
S11301400000C2980895C098C19A11BA90B3C29A97
S113015000000000000011BA90B3C29897FDF3CFDD
S11301600C94940060E081E00C94A300CF93C62F1C
S113017098E2899FC00D112460E082E00E94A300F0
S1130180CC2331F060E084E10E94A300C150F8CF99
S1130190CF91089561E00C94A30023E023BF3EEFC8
S11301A0019748F032BF28B7216028BFA89508B648
S11301B000FEFDCFF5CF13BE08950E94B20060E0AB
S11301C080E00E94B6000E946F00049719F481E455
S11301D00E94CA0084EF91E00E94CD00EECFF89413
S10501E0FFCF4B
S9030000FC
