S010000070726F6A656374322E73726563EB
S11300000C942A000C9434000C9434000C943400A6
S11300100C9434000C9434000C9434000C9434008C
S11300200C9434000C9434000C9434000C9434007C
S11300300C9434000C9434000C9434000C9434006C
S11300400C9434000C9434000C9434000C9434005C
S11300500C94340011241FBECFE5D8E0DEBFCDBF21
S11300600E9490000C949C000C94000014BA15BAE1
S113007095B321E030E0A90102C0440F551F8A95D1
S1130080E2F74095942395BB85B302C0220F331F3A
S11300906A95E2F7282B25BB85B3811103C081E063
S11300A090E0089580E090E008950F931F93CF931C
S11300B0DF9300E010E018C0BE01C8010E943600C2
S11300C0892B49F0C801880F991F880F991F8C0F3D
S11300D09D1F01960CC0219602C0C0E0D0E0C43040
S11300E0D10554F30F5F1F4F04301105B4F3DF91B2
S11300F0CF911F910F91089523E023BF0AC083E895
S113010082BF88B7816088BFA89508B600FEFDCF7E
S1130110C9019C0121503109892B89F713BE089527
S113012088EE93E00E947C000E945500892BC1F761
S10F013088B3816088BBF4CFF894FFCF43
S9030000FC
