:100000000C942A000C9434000C9434000C943400AA
:100010000C9434000C9434000C9434000C94340090
:100020000C9434000C9434000C9434000C94340080
:100030000C9434000C9434000C9434000C94340070
:100040000C9434000C9434000C9434000C94340060
:100050000C94340011241FBECFE5D8E0DEBFCDBF25
:100060000E949D000C94BC000C94000014BA15BAB8
:1000700044B321E030E0F90102C0EE0FFF1F8A9582
:10008000E2F7CF014E2B44BB95B38095892385BB06
:1000900085B36C5F7F4F062E02C0220F331F0A9478
:1000A000E2F7282B25BB83B390E002C09595879596
:1000B0006A95E2F780FD03C081E090E0089580E05A
:1000C00090E008950F931F93CF93DF9300E010E02B
:1000D00018C0BE01C8010E943600892B49F0C80132
:1000E000880F991F880F991F8C0F9D1F01960CC0B8
:1000F000219602C0C0E0D0E0C430D10554F30F5FB8
:100100001F4F04301105B4F3DF91CF911F910F9170
:10011000089523E023BF0AC083E882BF88B78160C7
:1001200088BFA89508B600FEFDCFC9019C012150EB
:100130003109892B89F713BE089581E087BB88EECA
:1001400093E00E9489000E9462008C01C0E0D0E030
:100150000FC088B3816088BB84EF91E00E94890062
:1001600088B38E7F88BB84EF91E00E94890021963E
:0C017000C017D10774F3E3CFF894FFCF61
:00000001FF
