S010000070726F6A656374322E73726563EB
S11300000C942A000C943F000C943F000C943F0085
S11300100C943F000C943F000C943F000C943F0060
S11300200C943F000C943F000C943F000C943F0050
S11300300C943F000C943F000C943F000C943F0040
S11300400C943F000C943F000C943F000C943F0030
S11300500C943F0011241FBECFE5D8E0DEBFCDBF16
S113006010E0A0E6B0E0EEE5F0E102C005900D92EC
S1130070A23EB107D9F70E9401050C942D080C94F7
S113008000009BB39E7F9BBB14BA90EF95BB14BA40
S113009015BA44B321E030E0F90102C0EE0FFF1FAE
S11300A08A95E2F7CF014E2B44BB95B38095892303
S11300B085BB85B36C5F7F4F062E02C0220F331FB2
S11300C00A94E2F7282B25BB83B390E002C09595F0
S11300D087956A95E2F780FD06C08BB381608BBB80
S11300E081E090E0089580E090E008950F931F93DD
S11300F0CF93DF9300E010E018C0BE01C8010E9456
S11301004100892B49F0C801880F991F880F991F56
S11301108C0F9D1F01960CC0219602C0C0E0D0E058
S1130120C430D10554F30F5F1F4F04301105B4F3ED
S1130130DF91CF911F910F910895882321F088B307
S1130140816088BB03C088B38E7F88BB88B382601C
S113015088BB11BA80B388B3846088BB00000000F8
S1130160000011BA80B398B39B7F98BB08956623AF
S113017021F098B3916098BB03C098B39E7F98BB5D
S113018098B39D7F98BB82BB8FEF81BB88B384609B
S113019088BB00000000000088B38B7F88BB0895F3
S11301A0CF93DF93C82FD62F80E00E949D00882331
S11301B0DCF36D2F8C2F0E94B700DF91CF9108954F
S11301C087B3816087BB87B3826087BB87B3846052
S11301D087BB80E190E00E94ED0460E080E30E9430
S11301E0B70085E090E00E94ED0460E080E30E94A7
S11301F0B70081E090E00E94ED0460E08CE30E948F
S1130200D00060E08CE00E94D00060E086E00E94B4
S1130210D00060E081E00E94D000089560E081E0B9
S11302200E94D0000895CF93DF93C62F98E2899F50
S1130230C00D112460E082E00E94D00005C060E09F
S113024084E10E94D000CD2FDFEFDC0FC111F7CF86
S1130250DF91CF91089561E00E94D0000895CF937B
S1130260DF93FC0104C061E00E94D000FE01EF01B5
S1130270219680818111F7CFDF91CF910895FC0100
S113028086EE97E0918380838CE082838FE1838381
S113029087E184838BE3858382E3868381E080879F
S11302A00895FC0186818F5F86838C3320F08581DD
S11302B08F5F8583168285818C3320F084818F5FE4
S11302C0848315828481883120F083818F5F8383C6
S11302D014828381803228F082818F5F828381E05F
S11302E0838382818D3038F080819181019691835E
S11302F0808381E0828308950F931F93CF93DF93CC
S1130300CDB7DEB761970FB6F894DEBF0FBECDBF91
S11303108C0160E080E00E941301F80193818281E6
S11303201F929F931F928F9381818F9380818F93CC
S113033080E790E09F938F938E010F5F1F4F1F9371
S11303400F930E944305C8010E942F010FB6F89431
S1130350DEBF0FBECDBF61960FB6F894DEBF0FBEF1
S1130360CDBFDF91CF911F910F9108950F931F93EC
S1130370CF93DF93CDB7DEB761970FB6F894DEBFA6
S11303800FBECDBF8C0160E081E00E941301F80133
S11303902681958184811F922F931F929F931F9290
S11303A08F938FE790E09F938F938E010F5F1F4F82
S11303B01F930F930E944305C8010E942F010FB69B
S11303C0F894DEBF0FBECDBF61960FB6F894DEBFC2
S11303D00FBECDBFDF91CF911F910F910895EF9282
S11303E0FF920F931F93CF93DF93CDB7DEB7689738
S11303F00FB6F894DEBF0FBECDBF7C010E940E0184
S113040080E1EEE8F0E0DE01119601900D928A950C
S1130410E1F760E080E00E941301CE0101960E94A2
S11304202F0160E081E00E94130100E010E029C088
S11304300E9476009C012150310920313105E8F4F5
S11304409C0123703327232BC1F004301105ACF435
S1130450FC01E15AFF4F8081F801EE0FFF1F21E0FC
S113046030E02C0F3D1FE20FF31F282F30E0318BBB
S1130470208B0F5F1F4F0E942B0184EF91E00E949D
S1130480ED0463E070E083E090E00E944100892B7A
S113049079F20430110561F60E940E0129893A8926
S11304A02053310988EE93E0289FA001299F500D25
S11304B0389F500D11242B893C892053310964E65F
S11304C0629FC001639F900D1124480F591F2D890D
S11304D03E89C901C097BC01660F771F9C01220F9A
S11304E0331F220F331F220F331FCB01820F931FA1
S11304F0840F951F2F89388D20533109820F931F44
S1130500F7019183808368960FB6F894DEBF0FBE1F
S1130510CDBFDF91CF911F910F91FF90EF90089580
S1130520EF92FF920F931F93CF93DF93CDB7DEB774
S113053063970FB6F894DEBF0FBECDBF7C010E9457
S11305400E018FE0EEE9F0E0DE01119601900D92CC
S11305508A95E1F760E080E00E941301CE010196E4
S11305600E942F0160E081E00E94130100E010E08E
S113057029C00E9476009C012150310920313105A7
S1130580E8F49C0123703327232BC1F002301105BA
S1130590ACF4FC01E15AFF4F8081F801EE0FFF1F1C
S11305A021E030E02C0F3D1FE20FF31F282F30E035
S11305B0308B27870F5F1F4F0E942B0184EF91E040
S11305C00E94ED0463E070E083E090E00E9441004B
S11305D0892B79F20230110561F60E940E01888997
S11305E09989C0979A89880F282F220F220F820F8A
S11305F0890F8053F701828363960FB6F894DEBFA8
S11306000FBECDBFDF91CF911F910F91FF90EF905F
S11306100895EF92FF920F931F93CF93DF93CDB77B
S1130620DEB761970FB6F894DEBF0FBECDBF7C0175
S11306300E940E018DE0EDEAF0E0DE0111960190DA
S11306400D928A95E1F760E080E00E941301CE01EB
S113065001960E942F0160E081E00E94130100E0F6
S113066010E029C00E9476009C01215031092031FC
S11306703105E8F49C0123703327232BC1F00230A9
S11306801105ACF4FC01E15AFF4F8081F801EE0F33
S1130690FF1F21E030E02C0F3D1FE20FF31F282F36
S11306A030E0368725870F5F1F4F0E942B018AEFAA
S11306B090E00E94ED0463E070E083E090E00E942B
S11306C04100892B79F20230110561F60E940E0176
S11306D08E859F85C0979889880F282F220F220F17
S11306E0820F890F8053F701838361960FB6F894C4
S11306F0DEBF0FBECDBFDF91CF911F910F91FF9051
S1130700EF900895EF92FF920F931F93CF93DF938F
S1130710CDB7DEB762970FB6F894DEBF0FBECDBF7C
S11307207C010E940E018EE0EAEBF0E0DE011196FE
S113073001900D928A95E1F760E080E00E94130138
S1130740CE0101960E942F0160E081E00E94130116
S113075000E010E029C00E9476009C01215031097C
S113076020313105E8F49C0123703327232BC1F099
S113077002301105ACF4FC01E15AFF4F8081F8010D
S1130780EE0FFF1F21E030E02C0F3D1FE20FF31F9F
S1130790282F30E0378726870F5F1F4F0E942B01D9
S11307A084EF91E00E94ED0463E070E080E090E06B
S11307B00E944100892B79F20230110561F60E94F2
S11307C00E018F859889C0979989880F282F220F49
S11307D0220F820F890F8053F701848362960FB62C
S11307E0F894DEBF0FBECDBFDF91CF911F910F9163
S11307F0FF90EF900895EF92FF920F931F93CF9382
S1130800DF93CDB7DEB761970FB6F894DEBF0FBEA6
S1130810CDBF7C010E940E018DE0E8ECF0E0DE012A
S1130820119601900D928A95E1F760E080E00E94B4
S11308301301CE0101960E942F0160E081E00E9425
S1130840130100E010E029C00E9476009C012150B1
S1130850310920313105E8F49C0123703327232B1F
S1130860C1F002301105ACF4FC01E15AFF4F808164
S1130870F801EE0FFF1F21E030E02C0F3D1FE20FC7
S1130880F31F282F30E0368725870F5F1F4F0E9404
S11308902B0184EF91E00E94ED0463E070E080E0BE
S11308A090E00E944100892B79F20230110561F633
S11308B00E940E018E859F85C0979889880F282FE6
S11308C0220F220F820F890F8053F70185836196CF
S11308D00FB6F894DEBF0FBECDBFDF91CF911F914D
S11308E00F91FF90EF900895EF92FF920F931F9353
S11308F0CF93DF93CDB7DEB761970FB6F894DEBF21
S11309000FBECDBF7C010E940E018DE0E5EDF0E04D
S1130910DE01119601900D928A95E1F760E080E086
S11309200E941301CE0101960E942F0160E081E034
S11309300E94130100E010E029C00E9476009C018F
S11309402150310920313105E8F49C01237033270B
S1130950232BC1F002301105ACF4FC01E15AFF4F26
S11309608081F801EE0FFF1F21E030E02C0F3D1FC6
S1130970E20FF31F282F30E0368725870F5F1F4FC4
S11309800E942B0184EF91E00E94ED0463E070E08B
S113099080E090E00E944100892B79F20230110539
S11309A061F60E940E018E859F85C0979889880FF5
S11309B0282F220F220F820F890F8053F70186837D
S11309C061960FB6F894DEBF0FBECDBFDF91CF9115
S11309D01F910F91FF90EF90089523E023BF0AC069
S11309E083E882BF88B7816088BFA89508B600FEF7
S11309F0FDCFC9019C0121503109892B89F713BE10
S1130A000895CF93DF93CDB7DEB729970FB6F89447
S1130A10DEBF0FBECDBF0E94E000CE0101960E9452
S1130A203F0188EE93E00E94ED04CE0101960E94FE
S1130A305101CE0101960E947C01CE0101960E94D3
S1130A40B6010E947600409769F4CE0101960E9497
S1130A50EF01CE0101960E949002CE0101960E9400
S1130A600903DFCF0E9476000497D9F6CE010196E0
S1130A700E948203CE0101960E94FB03CE010196DF
S1130A800E947404CECFAEE0B0E0E9E4F5E00C944B
S1130A9004080D891E8986E08C831A8309838FEFED
S1130AA09FE79E838D83AE01475E5F4F6F89788D8C
S1130AB0CE0101960E946505EF81F885E00FF11FD4
S1130AC010822E96E4E00C942008ABE0B0E0EBE654
S1130AD0F5E00C94F6076C017B018A01FC01178296
S1130AE01682838181FFCCC1CE0101963C01F601BF
S1130AF09381F70193FD859193FF81917F01882371
S1130B0009F4BAC1853239F493FD859193FF81913B
S1130B107F01853229F4B60190E00E945C07E7CF9B
S1130B20912C212C312CFFE1F315D8F08B3279F084
S1130B3038F4803279F08332A1F4232D20611DC072
S1130B408D3261F0803369F4232D216016C0832D2A
S1130B508260382EE32DE4603E2E2AC0F32DF86027
S1130B601DC037FC2DC020ED280F2A3040F08E32F6
S1130B70B9F436FC81C1232D2064322E19C036FE0F
S1130B8006C08AE0989E200D1124922E11C0EAE03E
S1130B902E9E200D1124222EF32DF0623F2E08C02C
S1130BA08C3621F4832D8068382E02C0883641F4B7
S1130BB0F70193FD859193FF81917F018111B3CF5B
S1130BC0982F9F7D9554933028F40C5F1F4F9FE31B
S1130BD099830DC0833631F0833771F0833509F082
S1130BE059C021C0F801808189830E5F1F4F88247A
S1130BF08394912C530113C02801F2E04F0E511C31
S1130C00F801A080B18036FE03C0692D70E002C0F7
S1130C106FEF7FEFC5010E9451074C018201F32D54
S1130C20FF773F2E16C0280122E0420E511CF80126
S1130C30A080B18036FE03C0692D70E002C06FEF62
S1130C407FEFC5010E9446074C01F32DF0683F2E4B
S1130C50820133FC1BC0822D90E088169906B0F403
S1130C60B60180E290E00E945C072A94F4CFF5017B
S1130C7037FC859137FE81915F01B60190E00E94B7
S1130C805C0721102A9421E0821A910881149104AE
S1130C9071F7E8C0843611F0893641F5F80137FE62
S1130CA007C060817181828193810C5F1F4F08C0EE
S1130CB060817181072E000C880B990B0E5F1F4F0A
S1130CC0F32DFF763F2E97FF09C090958095709580
S1130CD061957F4F8F4F9F4FF0683F2E2AE030E0A1
S1130CE0A3010E949807882E861845C0853731F4E1
S1130CF0232D2F7EB22E2AE030E025C0932D997F3C
S1130D00B92E8F36C1F018F4883579F0B5C0803724
S1130D1019F0883721F0B0C0E92FE061BE2EB4FE8F
S1130D200DC0FB2DF460BF2E09C034FE0AC0292F6C
S1130D302660B22E06C028E030E005C020E130E095
S1130D4002C020E132E0F801B7FE07C06081718182
S1130D50828193810C5F1F4F06C06081718180E0A6
S1130D6090E00E5F1F4FA3010E949807882E8618FB
S1130D70FB2DFF773F2E36FE0DC0232D2E7FA22E96
S1130D80891458F434FE0BC032FC09C0832D8E7EC6
S1130D90A82E05C0B82CA32C03C0B82C01C0B92CB4
S1130DA0A4FE0FC0FE01E80DF11D8081803321F403
S1130DB09A2D997EA92E09C0A2FE06C0B394B394BD
S1130DC004C08A2D867809F0B394A3FC11C0A0FE58
S1130DD006C0B21488F4280C922C9B180EC0B214CE
S1130DE060F4B60180E290E00E945C07B394F7CF10
S1130DF0B21418F42B1802C0982C212CA4FE10C095
S1130E00B60180E390E00E945C07A2FE17C0A1FC3B
S1130E1003C088E790E002C088E590E0B6010CC00A
S1130E208A2D867859F0A1FE02C08BE201C080E2CF
S1130E30A7FC8DE2B60190E00E945C07891438F4A7
S1130E40B60180E390E00E945C079A94F7CF8A94FD
S1130E50F301E80DF11D8081B60190E00E945C076A
S1130E608110F5CF222009F442CEB60180E290E051
S1130E700E945C072A94F6CFF6018681978102C00E
S1130E808FEF9FEF2B96E2E10C941208FC01059082
S1130E90615070400110D8F7809590958E0F9F1F78
S1130EA00895FC016150704001900110D8F78095BD
S1130EB090958E0F9F1F08950F931F93CF93DF93E9
S1130EC0FB01238121FD03C08FEF9FEF2CC022FF84
S1130ED016C046815781248135814217530744F453
S1130EE0A081B1819D012F5F3F4F318320838C937B
S1130EF0268137812F5F3F4F3783268314C08B01B0
S1130F00EC01FB010084F185E02D0995892BE1F6C4
S1130F10D80116968D919C911797019617969C93DC
S1130F208E931697CE01DF91CF911F910F91089563
S1130F30FA01AA27283051F1203181F1E8946F9306
S1130F406E7F6E5F7F4F8F4F9F4FAF4FB1E03ED0AC
S1130F50B4E03CD0670F781F891F9A1FA11D680F4A
S1130F60791F8A1F911DA11D6A0F711D811D911D7D
S1130F70A11D20D009F468943F912AE0269F1124F2
S1130F803019305D3193DEF6CF010895462F477056
S1130F90405D4193B3E00FD0C9F7F6CF462F4F70B1
S1130FA0405D4A3318F0495D31FD4052419302D00F
S1130FB0A9F7EACFB4E0A6959795879577956795B5
S1130FC0BA95C9F700976105710508959B01AC01B5
S1130FD00A2E06945795479537952795BA95C9F7DC
S1130FE0620F731F841F951FA01D08952F923F92B7
S1130FF04F925F926F927F928F929F92AF92BF9225
S1131000CF92DF92EF92FF920F931F93CF93DF93D0
S1131010CDB7DEB7CA1BDB0B0FB6F894DEBF0FBE2D
S1131020CDBF09942A88398848885F846E847D847A
S11310308C849B84AA84B984C884DF80EE80FD807C
S11310400C811B81AA81B981CE0FD11D0FB6F894F2
S1111050DEBF0FBECDBFED010895F894FFCFB3
S113105E3132334134353642373839432A3023441A
S113106E253034642F253032642F25303264002528
S113107E3032643A253032643A25303264005345B6
S113108E542059454152205B595959595D005345D5
S113109E54204D4F4E5448205B4D4D5D00534554E6
S11310AE20444159205B44445D0053455420484F2D
S11310BE5552205B48485D00534554204D494E20FF
S11310CE5B4D4D5D0053455420534543205B5353B4
S10510DE5D00AF
S9030000FC
