:100000000C942A000C9434000C9434000C943400AA
:100010000C9434000C9434000C9434000C94340090
:100020000C9434000C9434000C9434000C94340080
:100030000C9434000C9434000C9434000C94340070
:100040000C9434000C9434000C9434000C94340060
:100050000C94340011241FBECFE5D8E0DEBFCDBF25
:100060000E94DC000C9405010C940000882321F010
:1000700088B3816088BB03C088B38E7F88BB88B398
:10008000826088BB11BA80B388B3846088BB0000EB
:100090000000000011BA80B398B39B7F98BB08950D
:1000A000662321F098B3916098BB03C098B39E7FFC
:1000B00098BB98B39D7F98BB82BB8FEF81BB88B301
:1000C000846088BB00000000000088B38B7F88BB81
:1000D0000895CF93DF93C82FD62F80E00E9436007B
:1000E0008823DCF36D2F8C2F0E945000DF91CF917D
:1000F000089587B3816087BB87B3826087BB87B36E
:10010000846087BB80E190E00E94C80060E080E3EB
:100110000E94500085E090E00E94C80060E080E30B
:100120000E94500081E090E00E94C80060E08CE3F3
:100130000E94690060E08CE00E94690060E086E057
:100140000E94690060E081E00E946900089560E01B
:1001500081E00E9469000895CF93DF93C62F98E253
:10016000899FC00D112460E082E00E94690005C0F3
:1001700060E084E10E946900CD2FDFEFDC0FC11148
:10018000F7CFDF91CF91089561E00E946900089553
:1001900023E023BF0AC083E882BF88B7816088BF9D
:1001A000A89508B600FEFDCFC9019C012150310978
:1001B000892B89F713BE08950F931F93CF93DF9375
:1001C0000E9479000E94A70000E010E014C06C2F8C
:1001D000802F0E94AC0080E30E94C40084E690E07F
:1001E0000E94C800219602C0C0E0D0E0C031D10515
:1001F00074F30F5F1F4F02301105B4F380E090E0FD
:0E020000DF91CF911F910F910895F894FFCFD9
:00000001FF
