S010000070726F6A656374322E73726563EB
S11300000C942A000C9434000C9434000C943400A6
S11300100C9434000C9434000C9434000C9434008C
S11300200C9434000C9434000C9434000C9434007C
S11300300C9434000C9434000C9434000C9434006C
S11300400C9434000C9434000C9434000C9434005C
S11300500C94340011241FBECFE5D8E0DEBFCDBF21
S11300600E945C000C9483000C94000014BA15BA2E
S113007025B36C5F7F4F81E090E002C0880F991F29
S11300806A95E2F7822B85BB83B3807190E0089573
S113009023E023BF0AC083E882BF88B7816088BF9A
S11300A0A89508B600FEFDCFC9019C012150310975
S11300B0892B89F713BE08950F931F93CF93DF9372
S11300C060E070E080E090E00E9436008C01C0E0C7
S11300D0D0E00FC088B3816088BB8AEF90E00E94B3
S11300E0480088B38E7F88BB8AEF90E00E94480066
S11300F02196C017D10774F380E090E0DF91CF918F
S10D01001F910F910895F894FFCFAA
S9030000FC
